:100000000C942A000C9447000C9447000C94470071
:100010000C9447000C9447000C9447000C94470044
:100020000C9447000C9447000C9447000C94470034
:100030000C9447000C9447000C9447000C94470024
:100040000C9447000C9447000C9447000C94470014
:100050000C94470011241FBECFE5D8E0DEBFCDBF12
:1000600010E0A0E6B0E0E4EDF9E002C005900D92EA
:10007000A837B107D9F710E0A8E7B0E001C01D929A
:10008000AC37B107E1F70E94C0010C94E8040C946E
:100090000000AF9A8DE08A95F1F7AF980895AE9879
:1000A00098B39F7098BB28B3982F907F922B98BBE2
:1000B000AF9A3DE0932F9A95F1F7AF9898B39F7060
:1000C00098BB28B3982F9295907F922B98BBAF9AAC
:1000D0003A95F1F7AF98813021F41092790010929F
:1000E000780080EA9FE00197F1F7089587B3806F69
:1000F00087BB88B38F7088BBA69AA79A82E00E94BC
:100100004F0088E20E944F0080ED97E00197F1F7E1
:1001100081E00E944F008EE00E944F0086E00E9426
:100120004F00089580917800909179000196909306
:10013000790080937800409781F480EC0E944F0012
:10014000109279001092780080917A0090917B0053
:10015000019690937B0080937A0080917A00909131
:100160007B00029739F480E80E944F0010927B00D8
:1001700010927A000895AE9A98B39F7098BB28B3F6
:10018000982F907F922B98BBAF9A2DE0922F9A9543
:10019000F1F7AF9898B39F7098BB98B38295807F22
:1001A000982B98BBAF9A2A95F1F7AF980E949200CE
:1001B00080ED97E00197F1F70895CF93DF93EC017D
:1001C00003C00E94BB00219688818823D1F710923A
:1001D00079001092780010927B0010927A00DF91E3
:1001E000CF910895DF93CF9300D0CDB7DEB790E8DD
:1001F000998390EC9A836150FE01E80FF11D808194
:10020000860F0E944F000F900F90CF91DF910895BD
:100210000F931F938A010E94F200C8010E94DD0023
:100220001F910F91089500D000D000D0EDB7FEB718
:100230003196ADB7BEB712967C936E93119720E6B8
:1002400030E033832283958384830E9410028DB72C
:100250009EB706960FB6F8949EBF0FBE8DBF089549
:100260001F93DF93CF9300D000D00F92CDB7DEB7AE
:10027000182FFE01319685E0DF011D928A95E9F77E
:10028000A09AA89A80E197E228EC30E0F901319732
:10029000F1F70197D9F7A89880EA9CE80197F1F760
:1002A000A89A82E08A95F1F7A0988AE18A95F1F7F9
:1002B000989953C095ED892F8A95F1F7989B4DC079
:1002C000892F8A95F1F7FE0131965DE5A1E0B0E056
:1002D000BE016A5F7F4F1BC0989BFECF852F8A951A
:1002E000F1F7989B08C0CD01022E02C0880F991F1C
:1002F0000A94E2F7482B9899FECF215030408FEFB7
:100300002F3F380749F74193E617F70721F040E000
:1003100027E030E0E1CFA09AA89A80E197E228ECAC
:1003200030E0F9013197F1F70197D9F749815B8105
:100330008A81242F30E0280F311D250F311D8C813B
:10034000280F311D8D8190E02817390731F41123D2
:1003500011F4452F03C0113009F04FEF842F0F9097
:100360000F900F900F900F90CF91DF911F910895F4
:1003700081E00E943001089580E00E9430010895DC
:10038000AF92BF92CF92DF92EF92FF920F931F93A3
:10039000DF93CF93CDB7DEB764970FB6F894DEBF87
:1003A0000FBECDBF0E94760081E00E944F0081E029
:1003B00061E043E650E00E94080182E061E04BE624
:1003C00050E00E94080198ECA92EB12C8E010F5F1D
:1003D0001F4F8BE0C82ED12CCC0EDD1E0E94BC011D
:1003E000F82E0E94B801E82E80E29EE4F5013197D4
:1003F000F1F70197D9F78F2D90E0B8010E94130112
:100400008E2D90E0B6010E94130181E06CE0A801FE
:100410000E94080182E06CE0A8010E940801DECF82
:10042000AEE0B0E0E6E1F2E00C94BF040D891E8975
:1004300086E08C831A8309838FEF9FE79E838D83E9
:100440009E01275E3F4FCE0101966F89788DA901ED
:100450000E9434022F813885020F131FF801108289
:100460002E96E4E00C94DB04ABE0B0E0EAE3F2E0CB
:100470000C94B1043C012B015A01FC011782168235
:10048000838181FD03C06FEF7FEFC6C19AE0892EA3
:100490001E010894211C311CF3012381F20123FD6C
:1004A000859123FF81912F01882309F4B2C1853200
:1004B00039F423FD859123FF81912F01853229F4A1
:1004C00090E0B3010E942704E7CF982FFF24EE2489
:1004D0009924FFE1FF15D0F09B3269F09C3228F49B
:1004E000903259F0933291F40EC09D3249F090331E
:1004F00069F441E024C052E0F52A84E0F82A28C0DB
:1005000098E0F92A25C0E0E1FE2A22C0F7FC29C0C4
:10051000892F80538A3070F4F6FE05C0989C902C89
:100520001124980E15C0E89CE02C1124E80EF0E28E
:10053000FF2A0EC09E3229F4F6FC6BC140E4F42A77
:1005400007C09C3619F450E8F52A02C0983649F4E1
:10055000F20123FD959123FF91912F01992309F039
:10056000B8CF892F8554833018F08052833038F407
:1005700044E050E0A40EB51E5FE359830FC09336EC
:1005800031F0933779F0933509F056C020C0F5016A
:100590008081898342E050E0A40EB51E610101E034
:1005A00010E012C0F501C080D180F6FC03C06FEFEF
:1005B0007FEF02C0692D70E042E050E0A40EB51E4E
:1005C000C6010E941C048C015FE7F52214C0F501EE
:1005D000C080D180F6FC03C06FEF7FEF02C0692DB1
:1005E00070E042E050E0A40EB51EC6010E94110466
:1005F0008C0150E8F52AF3FE07C01AC080E290E0B3
:10060000B3010E942704EA948E2D90E00817190781
:10061000A8F30EC0F601F7FC8591F7FE81916F01FA
:1006200090E0B3010E942704E110EA9401501040C9
:100630000115110579F7EAC0943611F0993669F57C
:10064000F7FE08C0F501208131814281538184E0A9
:1006500090E00AC0F501808191819C01442737FD1B
:100660004095542F82E090E0A80EB91E9FE6F92233
:1006700057FF09C050954095309521953F4F4F4FFA
:100680005F4FE0E8FE2ACA01B901A1012AE030E08B
:100690000E945304D82ED21840C0953729F41F2D3C
:1006A0001F7E2AE030E01DC01F2D197F9F3661F0AC
:1006B000903720F4983509F0ACC00FC0903739F06E
:1006C000983709F0A6C004C028E030E00AC01061E5
:1006D00014FD146020E130E004C014FD166020E138
:1006E00032E017FF08C0F50160817181828193813A
:1006F00044E050E008C0F50180819181BC0180E0B8
:1007000090E042E050E0A40EB51EA1010E94530407
:10071000D82ED2188FE7F82EF122F6FE0BC05EEF2E
:10072000F522D91438F4F4FE07C0F2FC05C08FEEB0
:10073000F82202C01D2D01C0192DF4FE0DC0FE01CE
:10074000ED0DF11D8081803319F499EEF92208C076
:100750001F5FF2FE05C003C08F2D867809F01F5F72
:100760000F2DF3FC14C0F0FE0FC01E1510F09D2CD1
:100770000BC09D2C9E0C911A1E2D06C080E290E0AD
:10078000B3010E9427041F5F1E15C0F304C01E158D
:1007900010F4E11A01C0EE2404FF0FC080E390E0E2
:1007A000B3010E94270402FF1DC001FD03C088E7BA
:1007B00090E00EC088E590E00BC0802F867891F025
:1007C00001FF02C08BE201C080E2F7FC8DE290E005
:1007D000B3010E94270406C080E390E0B3010E94A9
:1007E00027049A94D914C0F3DA94F101ED0DF11DA8
:1007F000808190E0B3010E942704DD20A9F706C0A4
:1008000080E290E0B3010E942704EA94EE20C1F751
:1008100043CEF30166817781CB012B96E2E10C9404
:10082000CD04FC010590615070400110D8F780950F
:1008300090958E0F9F1F0895FC01615070400190AC
:100840000110D8F7809590958E0F9F1F08950F93F4
:100850001F93CF93DF938C01EB018B8181FF1BC032
:1008600082FF0DC02E813F818C819D812817390721
:1008700064F4E881F9810193F983E88306C0E8858F
:10088000F985802F0995892B31F48E819F810196FE
:100890009F838E8302C00FEF1FEFC801DF91CF91BE
:1008A0001F910F910895FA01AA27283051F12031A4
:1008B00081F1E8946F936E7F6E5F7F4F8F4F9F4FF4
:1008C000AF4FB1E03ED0B4E03CD0670F781F891F36
:1008D0009A1FA11D680F791F8A1F911DA11D6A0F04
:1008E000711D811D911DA11D20D009F468943F91B7
:1008F0002AE0269F11243019305D3193DEF6CF01B6
:100900000895462F4770405D4193B3E00FD0C9F77B
:10091000F6CF462F4F70405D4A3318F0495D31FDE8
:100920004052419302D0A9F7EACFB4E0A69597953B
:10093000879577956795BA95C9F700976105710511
:1009400008959B01AC010A2E06945795479537955B
:100950002795BA95C9F7620F731F841F951FA01DB5
:1009600008952F923F924F925F926F927F928F9253
:100970009F92AF92BF92CF92DF92EF92FF920F932E
:100980001F93CF93DF93CDB7DEB7CA1BDB0B0FB638
:10099000F894DEBF0FBECDBF09942A8839884888F5
:1009A0005F846E847D848C849B84AA84B984C8848B
:1009B000DF80EE80FD800C811B81AA81B981CE0F82
:1009C000D11D0FB6F894DEBF0FBECDBFED01089567
:0409D000F894FFCFC9
:1009D40025640054656D70203D200048756D696480
:0809E400697479203D20000038
:00000001FF
